{
    "contractName": "ArtToken",
    "abi": [
        {
            "inputs": [
                {
                    "internalType": "string",
                    "name": "_name",
                    "type": "string"
                },
                {
                    "internalType": "string",
                    "name": "_symbol",
                    "type": "string"
                },
                {
                    "internalType": "string",
                    "name": "_initialBaseURI",
                    "type": "string"
                }
            ],
            "stateMutability": "nonpayable",
            "type": "constructor"
        },
        {
            "anonymous": false,
            "inputs": [
                {
                    "indexed": true,
                    "internalType": "address",
                    "name": "owner",
                    "type": "address"
                },
                {
                    "indexed": true,
                    "internalType": "address",
                    "name": "approved",
                    "type": "address"
                },
                {
                    "indexed": true,
                    "internalType": "uint256",
                    "name": "tokenId",
                    "type": "uint256"
                }
            ],
            "name": "Approval",
            "type": "event"
        },
        {
            "anonymous": false,
            "inputs": [
                {
                    "indexed": true,
                    "internalType": "address",
                    "name": "owner",
                    "type": "address"
                },
                {
                    "indexed": true,
                    "internalType": "address",
                    "name": "operator",
                    "type": "address"
                },
                {
                    "indexed": false,
                    "internalType": "bool",
                    "name": "approved",
                    "type": "bool"
                }
            ],
            "name": "ApprovalForAll",
            "type": "event"
        },
        {
            "anonymous": false,
            "inputs": [
                {
                    "indexed": true,
                    "internalType": "address",
                    "name": "previousOwner",
                    "type": "address"
                },
                {
                    "indexed": true,
                    "internalType": "address",
                    "name": "newOwner",
                    "type": "address"
                }
            ],
            "name": "OwnershipTransferred",
            "type": "event"
        },
        {
            "anonymous": false,
            "inputs": [
                {
                    "indexed": true,
                    "internalType": "address",
                    "name": "from",
                    "type": "address"
                },
                {
                    "indexed": true,
                    "internalType": "address",
                    "name": "to",
                    "type": "address"
                },
                {
                    "indexed": true,
                    "internalType": "uint256",
                    "name": "tokenId",
                    "type": "uint256"
                }
            ],
            "name": "Transfer",
            "type": "event"
        },
        {
            "inputs": [
                {
                    "internalType": "address",
                    "name": "to",
                    "type": "address"
                },
                {
                    "internalType": "uint256",
                    "name": "tokenId",
                    "type": "uint256"
                }
            ],
            "name": "approve",
            "outputs": [],
            "stateMutability": "nonpayable",
            "type": "function"
        },
        {
            "inputs": [
                {
                    "internalType": "address",
                    "name": "owner",
                    "type": "address"
                }
            ],
            "name": "balanceOf",
            "outputs": [
                {
                    "internalType": "uint256",
                    "name": "",
                    "type": "uint256"
                }
            ],
            "stateMutability": "view",
            "type": "function"
        },
        {
            "inputs": [
                {
                    "internalType": "uint256",
                    "name": "tokenId",
                    "type": "uint256"
                }
            ],
            "name": "buy",
            "outputs": [],
            "stateMutability": "payable",
            "type": "function"
        },
        {
            "inputs": [
                {
                    "internalType": "uint256",
                    "name": "tokenId",
                    "type": "uint256"
                }
            ],
            "name": "getApproved",
            "outputs": [
                {
                    "internalType": "address",
                    "name": "",
                    "type": "address"
                }
            ],
            "stateMutability": "view",
            "type": "function"
        },
        {
            "inputs": [
                {
                    "internalType": "uint256",
                    "name": "tokenId",
                    "type": "uint256"
                }
            ],
            "name": "getBuyable",
            "outputs": [
                {
                    "internalType": "bool",
                    "name": "",
                    "type": "bool"
                }
            ],
            "stateMutability": "view",
            "type": "function"
        },
        {
            "inputs": [
                {
                    "internalType": "address",
                    "name": "owner",
                    "type": "address"
                },
                {
                    "internalType": "address",
                    "name": "operator",
                    "type": "address"
                }
            ],
            "name": "isApprovedForAll",
            "outputs": [
                {
                    "internalType": "bool",
                    "name": "",
                    "type": "bool"
                }
            ],
            "stateMutability": "view",
            "type": "function"
        },
        {
            "inputs": [],
            "name": "name",
            "outputs": [
                {
                    "internalType": "string",
                    "name": "",
                    "type": "string"
                }
            ],
            "stateMutability": "view",
            "type": "function"
        },
        {
            "inputs": [],
            "name": "owner",
            "outputs": [
                {
                    "internalType": "address",
                    "name": "",
                    "type": "address"
                }
            ],
            "stateMutability": "view",
            "type": "function"
        },
        {
            "inputs": [
                {
                    "internalType": "uint256",
                    "name": "tokenId",
                    "type": "uint256"
                }
            ],
            "name": "ownerOf",
            "outputs": [
                {
                    "internalType": "address",
                    "name": "",
                    "type": "address"
                }
            ],
            "stateMutability": "view",
            "type": "function"
        },
        {
            "inputs": [],
            "name": "renounceOwnership",
            "outputs": [],
            "stateMutability": "nonpayable",
            "type": "function"
        },
        {
            "inputs": [
                {
                    "internalType": "address",
                    "name": "from",
                    "type": "address"
                },
                {
                    "internalType": "address",
                    "name": "to",
                    "type": "address"
                },
                {
                    "internalType": "uint256",
                    "name": "tokenId",
                    "type": "uint256"
                }
            ],
            "name": "safeTransferFrom",
            "outputs": [],
            "stateMutability": "nonpayable",
            "type": "function"
        },
        {
            "inputs": [
                {
                    "internalType": "address",
                    "name": "from",
                    "type": "address"
                },
                {
                    "internalType": "address",
                    "name": "to",
                    "type": "address"
                },
                {
                    "internalType": "uint256",
                    "name": "tokenId",
                    "type": "uint256"
                },
                {
                    "internalType": "bytes",
                    "name": "_data",
                    "type": "bytes"
                }
            ],
            "name": "safeTransferFrom",
            "outputs": [],
            "stateMutability": "nonpayable",
            "type": "function"
        },
        {
            "inputs": [
                {
                    "internalType": "address",
                    "name": "operator",
                    "type": "address"
                },
                {
                    "internalType": "bool",
                    "name": "approved",
                    "type": "bool"
                }
            ],
            "name": "setApprovalForAll",
            "outputs": [],
            "stateMutability": "nonpayable",
            "type": "function"
        },
        {
            "inputs": [
                {
                    "internalType": "string",
                    "name": "_newBaseURI",
                    "type": "string"
                }
            ],
            "name": "setBaseURI",
            "outputs": [],
            "stateMutability": "nonpayable",
            "type": "function"
        },
        {
            "inputs": [
                {
                    "internalType": "uint256",
                    "name": "tokenId",
                    "type": "uint256"
                },
                {
                    "internalType": "bool",
                    "name": "isBuyable",
                    "type": "bool"
                }
            ],
            "name": "setBuyable",
            "outputs": [
                {
                    "internalType": "bool",
                    "name": "",
                    "type": "bool"
                }
            ],
            "stateMutability": "nonpayable",
            "type": "function"
        },
        {
            "inputs": [
                {
                    "internalType": "bytes4",
                    "name": "interfaceId",
                    "type": "bytes4"
                }
            ],
            "name": "supportsInterface",
            "outputs": [
                {
                    "internalType": "bool",
                    "name": "",
                    "type": "bool"
                }
            ],
            "stateMutability": "view",
            "type": "function"
        },
        {
            "inputs": [],
            "name": "symbol",
            "outputs": [
                {
                    "internalType": "string",
                    "name": "",
                    "type": "string"
                }
            ],
            "stateMutability": "view",
            "type": "function"
        },
        {
            "inputs": [
                {
                    "internalType": "uint256",
                    "name": "tokenId",
                    "type": "uint256"
                }
            ],
            "name": "tokenURI",
            "outputs": [
                {
                    "internalType": "string",
                    "name": "",
                    "type": "string"
                }
            ],
            "stateMutability": "view",
            "type": "function"
        },
        {
            "inputs": [
                {
                    "internalType": "address",
                    "name": "from",
                    "type": "address"
                },
                {
                    "internalType": "address",
                    "name": "to",
                    "type": "address"
                },
                {
                    "internalType": "uint256",
                    "name": "tokenId",
                    "type": "uint256"
                }
            ],
            "name": "transferFrom",
            "outputs": [],
            "stateMutability": "nonpayable",
            "type": "function"
        },
        {
            "inputs": [
                {
                    "internalType": "address",
                    "name": "newOwner",
                    "type": "address"
                }
            ],
            "name": "transferOwnership",
            "outputs": [],
            "stateMutability": "nonpayable",
            "type": "function"
        }
    ],
    "bytecode": "60806040523480156200001157600080fd5b5060405162001d1d38038062001d1d833981016040819052620000349162000242565b8251839083906200004d906000906020850190620000e9565b50805162000063906001906020840190620000e9565b505050600062000078620000e560201b60201c565b600780546001600160a01b0319166001600160a01b038316908117909155604051919250906000907f8be0079c531659141344cd1fd0a4f28419497f9722a3daafe3b4186f6b6457e0908290a3508051620000db90600a906020840190620000e9565b5050505062000322565b3390565b828054620000f790620002cf565b90600052602060002090601f0160209004810192826200011b576000855562000166565b82601f106200013657805160ff191683800117855562000166565b8280016001018555821562000166579182015b828111156200016657825182559160200191906001019062000149565b506200017492915062000178565b5090565b5b8082111562000174576000815560010162000179565b600082601f830112620001a0578081fd5b81516001600160401b0380821115620001bd57620001bd6200030c565b604051601f8301601f19908116603f01168101908282118183101715620001e857620001e86200030c565b8160405283815260209250868385880101111562000204578485fd5b8491505b8382101562000227578582018301518183018401529082019062000208565b838211156200023857848385830101525b9695505050505050565b60008060006060848603121562000257578283fd5b83516001600160401b03808211156200026e578485fd5b6200027c878388016200018f565b9450602086015191508082111562000292578384fd5b620002a0878388016200018f565b93506040860151915080821115620002b6578283fd5b50620002c5868287016200018f565b9150509250925092565b600181811c90821680620002e457607f821691505b602082108114156200030657634e487b7160e01b600052602260045260246000fd5b50919050565b634e487b7160e01b600052604160045260246000fd5b6119eb80620003326000396000f3fe60806040526004361061011f5760003560e01c8063715018a6116100a0578063b88d4fde11610064578063b88d4fde1461033b578063c87b56dd1461035b578063d96a094a1461037b578063e985e9c51461038e578063f2fde38b146103d757600080fd5b8063715018a6146102a35780638da5cb5b146102b857806395d89b41146102d6578063a131141f146102eb578063a22cb4651461031b57600080fd5b806334cd96bb116100e757806334cd96bb146101f557806342842e0e1461021557806355f804b3146102355780636352211e1461025557806370a082311461027557600080fd5b806301ffc9a71461012457806306fdde0314610159578063081812fc1461017b578063095ea7b3146101b357806323b872dd146101d5575b600080fd5b34801561013057600080fd5b5061014461013f366004611649565b6103f7565b60405190151581526020015b60405180910390f35b34801561016557600080fd5b5061016e610449565b6040516101509190611799565b34801561018757600080fd5b5061019b6101963660046116c7565b6104db565b6040516001600160a01b039091168152602001610150565b3480156101bf57600080fd5b506101d36101ce366004611620565b610575565b005b3480156101e157600080fd5b506101d36101f0366004611543565b61068b565b34801561020157600080fd5b506101446102103660046116df565b6106bc565b34801561022157600080fd5b506101d3610230366004611543565b610766565b34801561024157600080fd5b506101d3610250366004611681565b610781565b34801561026157600080fd5b5061019b6102703660046116c7565b6107c2565b34801561028157600080fd5b506102956102903660046114f7565b610839565b604051908152602001610150565b3480156102af57600080fd5b506101d36108c0565b3480156102c457600080fd5b506007546001600160a01b031661019b565b3480156102e257600080fd5b5061016e610934565b3480156102f757600080fd5b506101446103063660046116c7565b60009081526008602052604090205460ff1690565b34801561032757600080fd5b506101d36103363660046115f7565b610943565b34801561034757600080fd5b506101d361035636600461157e565b610a08565b34801561036757600080fd5b5061016e6103763660046116c7565b610a40565b6101d36103893660046116c7565b610bba565b34801561039a57600080fd5b506101446103a9366004611511565b6001600160a01b03918216600090815260056020908152604080832093909416825291909152205460ff1690565b3480156103e357600080fd5b506101d36103f23660046114f7565b610c8c565b60006001600160e01b031982166380ac58cd60e01b148061042857506001600160e01b03198216635b5e139f60e01b145b8061044357506301ffc9a760e01b6001600160e01b03198316145b92915050565b606060008054610458906118f3565b80601f0160208091040260200160405190810160405280929190818152602001828054610484906118f3565b80156104d15780601f106104a6576101008083540402835291602001916104d1565b820191906000526020600020905b8154815290600101906020018083116104b457829003601f168201915b5050505050905090565b6000818152600260205260408120546001600160a01b03166105595760405162461bcd60e51b815260206004820152602c60248201527f4552433732313a20617070726f76656420717565727920666f72206e6f6e657860448201526b34b9ba32b73a103a37b5b2b760a11b60648201526084015b60405180910390fd5b506000908152600460205260409020546001600160a01b031690565b6000610580826107c2565b9050806001600160a01b0316836001600160a01b031614156105ee5760405162461bcd60e51b815260206004820152602160248201527f4552433732313a20617070726f76616c20746f2063757272656e74206f776e656044820152603960f91b6064820152608401610550565b336001600160a01b038216148061060a575061060a81336103a9565b61067c5760405162461bcd60e51b815260206004820152603860248201527f4552433732313a20617070726f76652063616c6c6572206973206e6f74206f7760448201527f6e6572206e6f7220617070726f76656420666f7220616c6c00000000000000006064820152608401610550565b6106868383610d77565b505050565b6106953382610de5565b6106b15760405162461bcd60e51b815260040161055090611833565b610686838383610ed8565b6000806106c8846107c2565b90506001600160a01b03811633146107415760405162461bcd60e51b815260206004820152603660248201527f417274546f6b656e3a2073657442757961626c65206f6e6c792069732065786560448201527531baba30b1363290313c903a37b5b2b71037bbb732b960511b6064820152608401610550565b5050600091825260086020526040909120805460ff1916911515919091179055600190565b61068683838360405180602001604052806000815250610a08565b6007546001600160a01b031633146107ab5760405162461bcd60e51b8152600401610550906117fe565b80516107be90600a9060208401906113bc565b5050565b6000818152600260205260408120546001600160a01b0316806104435760405162461bcd60e51b815260206004820152602960248201527f4552433732313a206f776e657220717565727920666f72206e6f6e657869737460448201526832b73a103a37b5b2b760b91b6064820152608401610550565b60006001600160a01b0382166108a45760405162461bcd60e51b815260206004820152602a60248201527f4552433732313a2062616c616e636520717565727920666f7220746865207a65604482015269726f206164647265737360b01b6064820152608401610550565b506001600160a01b031660009081526003602052604090205490565b6007546001600160a01b031633146108ea5760405162461bcd60e51b8152600401610550906117fe565b6007546040516000916001600160a01b0316907f8be0079c531659141344cd1fd0a4f28419497f9722a3daafe3b4186f6b6457e0908390a3600780546001600160a01b0319169055565b606060018054610458906118f3565b6001600160a01b03821633141561099c5760405162461bcd60e51b815260206004820152601960248201527f4552433732313a20617070726f766520746f2063616c6c6572000000000000006044820152606401610550565b3360008181526005602090815260408083206001600160a01b03871680855290835292819020805460ff191686151590811790915590519081529192917f17307eab39ab6107e8899845ad3d59bd9653f200f220920489ca2b5937696c31910160405180910390a35050565b610a123383610de5565b610a2e5760405162461bcd60e51b815260040161055090611833565b610a3a84848484611078565b50505050565b6000818152600260205260409020546060906001600160a01b0316610ac15760405162461bcd60e51b815260206004820152603160248201527f45524337323155524953746f726167653a2055524920717565727920666f72206044820152703737b732bc34b9ba32b73a103a37b5b2b760791b6064820152608401610550565b60008281526006602052604081208054610ada906118f3565b80601f0160208091040260200160405190810160405280929190818152602001828054610b06906118f3565b8015610b535780601f10610b2857610100808354040283529160200191610b53565b820191906000526020600020905b815481529060010190602001808311610b3657829003601f168201915b505050505090506000610b646110ab565b9050805160001415610b77575092915050565b815115610ba9578082604051602001610b9192919061172d565b60405160208183030381529060405292505050919050565b610bb2846110ba565b949350505050565b60008181526008602052604090205460ff16610c185760405162461bcd60e51b815260206004820152601e60248201527f417274546f6b656e3a20546f6b656e206973206e6f742062757961626c6500006044820152606401610550565b600081815260096020526040902054341015610c765760405162461bcd60e51b815260206004820152601e60248201527f417274546f6b656e3a20496e73756666696369656e74207061796d656e7400006044820152606401610550565b610c89610c82826107c2565b338361068b565b50565b6007546001600160a01b03163314610cb65760405162461bcd60e51b8152600401610550906117fe565b6001600160a01b038116610d1b5760405162461bcd60e51b815260206004820152602660248201527f4f776e61626c653a206e6577206f776e657220697320746865207a65726f206160448201526564647265737360d01b6064820152608401610550565b6007546040516001600160a01b038084169216907f8be0079c531659141344cd1fd0a4f28419497f9722a3daafe3b4186f6b6457e090600090a3600780546001600160a01b0319166001600160a01b0392909216919091179055565b600081815260046020526040902080546001600160a01b0319166001600160a01b0384169081179091558190610dac826107c2565b6001600160a01b03167f8c5be1e5ebec7d5bd14f71427d1e84f3dd0314c0f7b2291e5b200ac8c7c3b92560405160405180910390a45050565b6000818152600260205260408120546001600160a01b0316610e5e5760405162461bcd60e51b815260206004820152602c60248201527f4552433732313a206f70657261746f7220717565727920666f72206e6f6e657860448201526b34b9ba32b73a103a37b5b2b760a11b6064820152608401610550565b6000610e69836107c2565b9050806001600160a01b0316846001600160a01b03161480610ea45750836001600160a01b0316610e99846104db565b6001600160a01b0316145b80610bb257506001600160a01b0380821660009081526005602090815260408083209388168352929052205460ff16610bb2565b826001600160a01b0316610eeb826107c2565b6001600160a01b031614610f535760405162461bcd60e51b815260206004820152602960248201527f4552433732313a207472616e73666572206f6620746f6b656e2074686174206960448201526839903737ba1037bbb760b91b6064820152608401610550565b6001600160a01b038216610fb55760405162461bcd60e51b8152602060048201526024808201527f4552433732313a207472616e7366657220746f20746865207a65726f206164646044820152637265737360e01b6064820152608401610550565b610fc0600082610d77565b6001600160a01b0383166000908152600360205260408120805460019290610fe99084906118b0565b90915550506001600160a01b0382166000908152600360205260408120805460019290611017908490611884565b909155505060008181526002602052604080822080546001600160a01b0319166001600160a01b0386811691821790925591518493918716917fddf252ad1be2c89b69c2b068fc378daa952ba7f163c4a11628f55a4df523b3ef91a4505050565b611083848484610ed8565b61108f84848484611195565b610a3a5760405162461bcd60e51b8152600401610550906117ac565b6060600a8054610458906118f3565b6000818152600260205260409020546060906001600160a01b03166111395760405162461bcd60e51b815260206004820152602f60248201527f4552433732314d657461646174613a2055524920717565727920666f72206e6f60448201526e3732bc34b9ba32b73a103a37b5b2b760891b6064820152608401610550565b60006111436110ab565b90506000815111611163576040518060200160405280600081525061118e565b8061116d846112a2565b60405160200161117e92919061172d565b6040516020818303038152906040525b9392505050565b60006001600160a01b0384163b1561129757604051630a85bd0160e11b81526001600160a01b0385169063150b7a02906111d990339089908890889060040161175c565b602060405180830381600087803b1580156111f357600080fd5b505af1925050508015611223575060408051601f3d908101601f1916820190925261122091810190611665565b60015b61127d573d808015611251576040519150601f19603f3d011682016040523d82523d6000602084013e611256565b606091505b5080516112755760405162461bcd60e51b8152600401610550906117ac565b805181602001fd5b6001600160e01b031916630a85bd0160e11b149050610bb2565b506001949350505050565b6060816112c65750506040805180820190915260018152600360fc1b602082015290565b8160005b81156112f057806112da8161192e565b91506112e99050600a8361189c565b91506112ca565b60008167ffffffffffffffff81111561131957634e487b7160e01b600052604160045260246000fd5b6040519080825280601f01601f191660200182016040528015611343576020820181803683370190505b5090505b8415610bb2576113586001836118b0565b9150611365600a86611949565b611370906030611884565b60f81b81838151811061139357634e487b7160e01b600052603260045260246000fd5b60200101906001600160f81b031916908160001a9053506113b5600a8661189c565b9450611347565b8280546113c8906118f3565b90600052602060002090601f0160209004810192826113ea5760008555611430565b82601f1061140357805160ff1916838001178555611430565b82800160010185558215611430579182015b82811115611430578251825591602001919060010190611415565b5061143c929150611440565b5090565b5b8082111561143c5760008155600101611441565b600067ffffffffffffffff8084111561147057611470611989565b604051601f8501601f19908116603f0116810190828211818310171561149857611498611989565b816040528093508581528686860111156114b157600080fd5b858560208301376000602087830101525050509392505050565b80356001600160a01b03811681146114e257600080fd5b919050565b803580151581146114e257600080fd5b600060208284031215611508578081fd5b61118e826114cb565b60008060408385031215611523578081fd5b61152c836114cb565b915061153a602084016114cb565b90509250929050565b600080600060608486031215611557578081fd5b611560846114cb565b925061156e602085016114cb565b9150604084013590509250925092565b60008060008060808587031215611593578081fd5b61159c856114cb565b93506115aa602086016114cb565b925060408501359150606085013567ffffffffffffffff8111156115cc578182fd5b8501601f810187136115dc578182fd5b6115eb87823560208401611455565b91505092959194509250565b60008060408385031215611609578182fd5b611612836114cb565b915061153a602084016114e7565b60008060408385031215611632578182fd5b61163b836114cb565b946020939093013593505050565b60006020828403121561165a578081fd5b813561118e8161199f565b600060208284031215611676578081fd5b815161118e8161199f565b600060208284031215611692578081fd5b813567ffffffffffffffff8111156116a8578182fd5b8201601f810184136116b8578182fd5b610bb284823560208401611455565b6000602082840312156116d8578081fd5b5035919050565b600080604083850312156116f1578182fd5b8235915061153a602084016114e7565b600081518084526117198160208601602086016118c7565b601f01601f19169290920160200192915050565b6000835161173f8184602088016118c7565b8351908301906117538183602088016118c7565b01949350505050565b6001600160a01b038581168252841660208201526040810183905260806060820181905260009061178f90830184611701565b9695505050505050565b60208152600061118e6020830184611701565b60208082526032908201527f4552433732313a207472616e7366657220746f206e6f6e20455243373231526560408201527131b2b4bb32b91034b6b83632b6b2b73a32b960711b606082015260800190565b6020808252818101527f4f776e61626c653a2063616c6c6572206973206e6f7420746865206f776e6572604082015260600190565b60208082526031908201527f4552433732313a207472616e736665722063616c6c6572206973206e6f74206f6040820152701ddb995c881b9bdc88185c1c1c9bdd9959607a1b606082015260800190565b600082198211156118975761189761195d565b500190565b6000826118ab576118ab611973565b500490565b6000828210156118c2576118c261195d565b500390565b60005b838110156118e25781810151838201526020016118ca565b83811115610a3a5750506000910152565b600181811c9082168061190757607f821691505b6020821081141561192857634e487b7160e01b600052602260045260246000fd5b50919050565b60006000198214156119425761194261195d565b5060010190565b60008261195857611958611973565b500690565b634e487b7160e01b600052601160045260246000fd5b634e487b7160e01b600052601260045260246000fd5b634e487b7160e01b600052604160045260246000fd5b6001600160e01b031981168114610c8957600080fdfea2646970667358221220f02a1d35cc468c0b8636df9e2a771827ee595d072fa544c33501d2aa5dab57ec64736f6c63430008040033",
    "sourcePath": "/Users/frosted_bird/workspace/nft-platform/contracts/ArtToken.sol",
    "compiler": {
        "name": "solc",
        "version": "0.8.4+commit.c7e474f2"
    },
    "functionHashes": {
        "approve(address,uint256)": "095ea7b3",
        "balanceOf(address)": "70a08231",
        "buy(uint256)": "d96a094a",
        "getApproved(uint256)": "081812fc",
        "getBuyable(uint256)": "a131141f",
        "isApprovedForAll(address,address)": "e985e9c5",
        "name()": "06fdde03",
        "owner()": "8da5cb5b",
        "ownerOf(uint256)": "6352211e",
        "renounceOwnership()": "715018a6",
        "safeTransferFrom(address,address,uint256)": "42842e0e",
        "safeTransferFrom(address,address,uint256,bytes)": "b88d4fde",
        "setApprovalForAll(address,bool)": "a22cb465",
        "setBaseURI(string)": "55f804b3",
        "setBuyable(uint256,bool)": "34cd96bb",
        "supportsInterface(bytes4)": "01ffc9a7",
        "symbol()": "95d89b41",
        "tokenURI(uint256)": "c87b56dd",
        "transferFrom(address,address,uint256)": "23b872dd",
        "transferOwnership(address)": "f2fde38b"
    },
    "gasEstimates": {
        "creation": {
            "codeDepositCost": "1327000",
            "executionCost": "infinite",
            "totalCost": "infinite"
        },
        "external": {
            "approve(address,uint256)": "infinite",
            "balanceOf(address)": "1400",
            "buy(uint256)": "infinite",
            "getApproved(uint256)": "2160",
            "getBuyable(uint256)": "1228",
            "isApprovedForAll(address,address)": "infinite",
            "name()": "infinite",
            "owner()": "1076",
            "ownerOf(uint256)": "1345",
            "renounceOwnership()": "24185",
            "safeTransferFrom(address,address,uint256)": "infinite",
            "safeTransferFrom(address,address,uint256,bytes)": "infinite",
            "setApprovalForAll(address,bool)": "infinite",
            "setBaseURI(string)": "infinite",
            "setBuyable(uint256,bool)": "22301",
            "supportsInterface(bytes4)": "534",
            "symbol()": "infinite",
            "tokenURI(uint256)": "infinite",
            "transferFrom(address,address,uint256)": "infinite",
            "transferOwnership(address)": "24510"
        },
        "internal": {
            "_baseURI()": "infinite"
        }
    }
}